{
  "contractName": "PayrollInterface",
  "abi": [
    {
      "constant": true,
      "inputs": [
        {
          "name": "",
          "type": "uint256"
        }
      ],
      "name": "emp_book",
      "outputs": [
        {
          "name": "emp_address",
          "type": "address"
        },
        {
          "name": "emp_salary",
          "type": "uint256"
        },
        {
          "name": "time_pay",
          "type": "uint256"
        },
        {
          "name": "time_allocation",
          "type": "uint256"
        },
        {
          "name": "token_allocation",
          "type": "uint256"
        }
      ],
      "payable": false,
      "stateMutability": "view",
      "type": "function"
    },
    {
      "constant": true,
      "inputs": [
        {
          "name": "allthetokens",
          "type": "address[]"
        }
      ],
      "name": "calculatePayrollRunway",
      "outputs": [
        {
          "name": "",
          "type": "uint256"
        }
      ],
      "payable": false,
      "stateMutability": "view",
      "type": "function"
    },
    {
      "constant": false,
      "inputs": [
        {
          "name": "employeeId",
          "type": "uint256"
        },
        {
          "name": "yearlyEURSalary",
          "type": "uint256"
        }
      ],
      "name": "setEmployeeSalary",
      "outputs": [],
      "payable": false,
      "stateMutability": "nonpayable",
      "type": "function"
    },
    {
      "constant": false,
      "inputs": [],
      "name": "scapeHatch",
      "outputs": [],
      "payable": false,
      "stateMutability": "nonpayable",
      "type": "function"
    },
    {
      "constant": false,
      "inputs": [
        {
          "name": "employeeId",
          "type": "uint256"
        }
      ],
      "name": "removeEmployee",
      "outputs": [],
      "payable": false,
      "stateMutability": "nonpayable",
      "type": "function"
    },
    {
      "constant": true,
      "inputs": [],
      "name": "calculatePayrollBurnrate",
      "outputs": [
        {
          "name": "",
          "type": "uint256"
        }
      ],
      "payable": false,
      "stateMutability": "view",
      "type": "function"
    },
    {
      "constant": true,
      "inputs": [
        {
          "name": "",
          "type": "address"
        }
      ],
      "name": "exchangeboard",
      "outputs": [
        {
          "name": "",
          "type": "uint256"
        }
      ],
      "payable": false,
      "stateMutability": "view",
      "type": "function"
    },
    {
      "constant": true,
      "inputs": [
        {
          "name": "",
          "type": "address"
        }
      ],
      "name": "Get_Id",
      "outputs": [
        {
          "name": "",
          "type": "uint256"
        }
      ],
      "payable": false,
      "stateMutability": "view",
      "type": "function"
    },
    {
      "constant": true,
      "inputs": [],
      "name": "total_pay",
      "outputs": [
        {
          "name": "",
          "type": "uint256"
        }
      ],
      "payable": false,
      "stateMutability": "view",
      "type": "function"
    },
    {
      "constant": false,
      "inputs": [],
      "name": "payday",
      "outputs": [
        {
          "name": "",
          "type": "bool"
        }
      ],
      "payable": false,
      "stateMutability": "nonpayable",
      "type": "function"
    },
    {
      "constant": false,
      "inputs": [
        {
          "name": "accountAddress",
          "type": "address"
        },
        {
          "name": "allowedTokens",
          "type": "address[]"
        },
        {
          "name": "initialYearlyEURSalary",
          "type": "uint256"
        }
      ],
      "name": "addEmployee",
      "outputs": [
        {
          "name": "",
          "type": "uint256"
        }
      ],
      "payable": false,
      "stateMutability": "nonpayable",
      "type": "function"
    },
    {
      "constant": true,
      "inputs": [],
      "name": "oracle",
      "outputs": [
        {
          "name": "",
          "type": "address"
        }
      ],
      "payable": false,
      "stateMutability": "view",
      "type": "function"
    },
    {
      "constant": true,
      "inputs": [],
      "name": "owner",
      "outputs": [
        {
          "name": "",
          "type": "address"
        }
      ],
      "payable": false,
      "stateMutability": "view",
      "type": "function"
    },
    {
      "constant": false,
      "inputs": [],
      "name": "addFunds",
      "outputs": [
        {
          "name": "",
          "type": "uint256"
        }
      ],
      "payable": true,
      "stateMutability": "payable",
      "type": "function"
    },
    {
      "constant": true,
      "inputs": [
        {
          "name": "",
          "type": "address"
        },
        {
          "name": "",
          "type": "address"
        }
      ],
      "name": "emp_addr_allocation",
      "outputs": [
        {
          "name": "",
          "type": "uint256"
        }
      ],
      "payable": false,
      "stateMutability": "view",
      "type": "function"
    },
    {
      "constant": true,
      "inputs": [
        {
          "name": "employeeId",
          "type": "uint256"
        }
      ],
      "name": "getEmployee",
      "outputs": [
        {
          "name": "",
          "type": "address"
        },
        {
          "name": "",
          "type": "uint256"
        },
        {
          "name": "",
          "type": "address[]"
        },
        {
          "name": "",
          "type": "uint256"
        },
        {
          "name": "",
          "type": "uint256"
        },
        {
          "name": "",
          "type": "uint256"
        }
      ],
      "payable": false,
      "stateMutability": "view",
      "type": "function"
    },
    {
      "constant": false,
      "inputs": [
        {
          "name": "token",
          "type": "address"
        },
        {
          "name": "EURExchangeRate",
          "type": "uint256"
        }
      ],
      "name": "setExchangeRate",
      "outputs": [],
      "payable": false,
      "stateMutability": "nonpayable",
      "type": "function"
    },
    {
      "constant": false,
      "inputs": [
        {
          "name": "_from",
          "type": "address"
        },
        {
          "name": "_value",
          "type": "uint256"
        },
        {
          "name": "_data",
          "type": "bytes"
        }
      ],
      "name": "tokenFallback",
      "outputs": [
        {
          "name": "",
          "type": "uint256"
        }
      ],
      "payable": false,
      "stateMutability": "nonpayable",
      "type": "function"
    },
    {
      "constant": true,
      "inputs": [],
      "name": "getEmployeeCount",
      "outputs": [
        {
          "name": "",
          "type": "uint256"
        }
      ],
      "payable": false,
      "stateMutability": "view",
      "type": "function"
    },
    {
      "constant": true,
      "inputs": [
        {
          "name": "",
          "type": "address"
        }
      ],
      "name": "emp_check",
      "outputs": [
        {
          "name": "",
          "type": "bool"
        }
      ],
      "payable": false,
      "stateMutability": "view",
      "type": "function"
    },
    {
      "constant": true,
      "inputs": [],
      "name": "emp_count",
      "outputs": [
        {
          "name": "",
          "type": "uint256"
        }
      ],
      "payable": false,
      "stateMutability": "view",
      "type": "function"
    },
    {
      "constant": false,
      "inputs": [
        {
          "name": "tokens",
          "type": "address[]"
        },
        {
          "name": "distribution",
          "type": "uint256[]"
        }
      ],
      "name": "determineAllocation",
      "outputs": [
        {
          "name": "",
          "type": "bool"
        }
      ],
      "payable": false,
      "stateMutability": "nonpayable",
      "type": "function"
    },
    {
      "inputs": [
        {
          "name": "addr_oracle",
          "type": "address"
        }
      ],
      "payable": false,
      "stateMutability": "nonpayable",
      "type": "constructor"
    }
  ],
  "bytecode": "0x6060604052600060075560006008556103e8600955341561001f57600080fd5b604051602080611d408339810160405280805190602001909190505033600560006101000a81548173ffffffffffffffffffffffffffffffffffffffff021916908373ffffffffffffffffffffffffffffffffffffffff16021790555080600660006101000a81548173ffffffffffffffffffffffffffffffffffffffff021916908373ffffffffffffffffffffffffffffffffffffffff16021790555050611c73806100cd6000396000f300606060405260043610610127576000357c0100000000000000000000000000000000000000000000000000000000900463ffffffff168062bddfbe1461012c57806309561a5b146101ab5780630a0c75aa1461021957806316e85b2e1461024557806321ed0f641461025a5780632560baeb1461027d5780632a622e73146102a65780632e72cf22146102f35780633fb4d8cf146103405780636881385b1461036957806368c84260146103965780637dc0d1d01461042c5780638da5cb5b14610481578063a26759cb146104d6578063ba10b59d146104f4578063bca9a5c514610560578063bd5c542014610627578063c0ee0b8a14610669578063c2a63e3b14610702578063c61a800c1461072b578063e84485d71461077c578063fe2fdf0b146107a5575b600080fd5b341561013757600080fd5b61014d6004808035906020019091905050610857565b604051808673ffffffffffffffffffffffffffffffffffffffff1673ffffffffffffffffffffffffffffffffffffffff1681526020018581526020018481526020018381526020018281526020019550505050505060405180910390f35b34156101b657600080fd5b6102036004808035906020019082018035906020019080806020026020016040519081016040528093929190818152602001838360200280828437820191505050505050919050506108ad565b6040518082815260200191505060405180910390f35b341561022457600080fd5b6102436004808035906020019091908035906020019091905050610a79565b005b341561025057600080fd5b610258610b3e565b005b341561026557600080fd5b61027b6004808035906020019091905050610bb3565b005b341561028857600080fd5b610290610d4c565b6040518082815260200191505060405180910390f35b34156102b157600080fd5b6102dd600480803573ffffffffffffffffffffffffffffffffffffffff16906020019091905050610d62565b6040518082815260200191505060405180910390f35b34156102fe57600080fd5b61032a600480803573ffffffffffffffffffffffffffffffffffffffff16906020019091905050610d7a565b6040518082815260200191505060405180910390f35b341561034b57600080fd5b610353610d92565b6040518082815260200191505060405180910390f35b341561037457600080fd5b61037c610d98565b604051808215151515815260200191505060405180910390f35b34156103a157600080fd5b610416600480803573ffffffffffffffffffffffffffffffffffffffff1690602001909190803590602001908201803590602001908080602002602001604051908101604052809392919081815260200183836020028082843782019150505050505091908035906020019091905050611232565b6040518082815260200191505060405180910390f35b341561043757600080fd5b61043f611431565b604051808273ffffffffffffffffffffffffffffffffffffffff1673ffffffffffffffffffffffffffffffffffffffff16815260200191505060405180910390f35b341561048c57600080fd5b610494611457565b604051808273ffffffffffffffffffffffffffffffffffffffff1673ffffffffffffffffffffffffffffffffffffffff16815260200191505060405180910390f35b6104de61147d565b6040518082815260200191505060405180910390f35b34156104ff57600080fd5b61054a600480803573ffffffffffffffffffffffffffffffffffffffff1690602001909190803573ffffffffffffffffffffffffffffffffffffffff169060200190919050506114ea565b6040518082815260200191505060405180910390f35b341561056b57600080fd5b610581600480803590602001909190505061150f565b604051808773ffffffffffffffffffffffffffffffffffffffff1673ffffffffffffffffffffffffffffffffffffffff16815260200186815260200180602001858152602001848152602001838152602001828103825286818151815260200191508051906020019060200280838360005b8381101561060e5780820151818401526020810190506105f3565b5050505090500197505050505050505060405180910390f35b341561063257600080fd5b610667600480803573ffffffffffffffffffffffffffffffffffffffff169060200190919080359060200190919050506116bb565b005b341561067457600080fd5b6106ec600480803573ffffffffffffffffffffffffffffffffffffffff1690602001909190803590602001909190803590602001908201803590602001908080601f0160208091040260200160405190810160405280939291908181526020018383808284378201915050505050509190505061175f565b6040518082815260200191505060405180910390f35b341561070d57600080fd5b61071561182d565b6040518082815260200191505060405180910390f35b341561073657600080fd5b610762600480803573ffffffffffffffffffffffffffffffffffffffff16906020019091905050611893565b604051808215151515815260200191505060405180910390f35b341561078757600080fd5b61078f6118b3565b6040518082815260200191505060405180910390f35b34156107b057600080fd5b61083d600480803590602001908201803590602001908080602002602001604051908101604052809392919081815260200183836020028082843782019150505050505091908035906020019082018035906020019080806020026020016040519081016040528093929190818152602001838360200280828437820191505050505050919050506118b9565b604051808215151515815260200191505060405180910390f35b60006020528060005260406000206000915090508060000160009054906101000a900473ffffffffffffffffffffffffffffffffffffffff16908060010154908060030154908060040154908060050154905085565b60008060008060008060009450600093505b86518460ff161015610a5257868460ff168151811015156108dc57fe5b9060200190602002015192508273ffffffffffffffffffffffffffffffffffffffff166370a08231888660ff1681518110151561091557fe5b906020019060200201516000604051602001526040518263ffffffff167c0100000000000000000000000000000000000000000000000000000000028152600401808273ffffffffffffffffffffffffffffffffffffffff1673ffffffffffffffffffffffffffffffffffffffff168152602001915050602060405180830381600087803b15156109a557600080fd5b6102c65a03f115156109b657600080fd5b505050604051805190509150610a2e60026000898760ff168151811015156109da57fe5b9060200190602002015173ffffffffffffffffffffffffffffffffffffffff1673ffffffffffffffffffffffffffffffffffffffff1681526020019081526020016000205483611a9390919063ffffffff16565b9050610a438186611aae90919063ffffffff16565b945083806001019450506108bf565b61016d600854811515610a6157fe5b0485811515610a6c57fe5b0495505050505050919050565b600560009054906101000a900473ffffffffffffffffffffffffffffffffffffffff1673ffffffffffffffffffffffffffffffffffffffff163373ffffffffffffffffffffffffffffffffffffffff16141515610ad557600080fd5b610aff60008084815260200190815260200160002060010154600854611acc90919063ffffffff16565b6008819055508060008084815260200190815260200160002060010181905550610b3481600854611aae90919063ffffffff16565b6008819055505050565b600560009054906101000a900473ffffffffffffffffffffffffffffffffffffffff1673ffffffffffffffffffffffffffffffffffffffff163373ffffffffffffffffffffffffffffffffffffffff16141515610b9a57600080fd5b3373ffffffffffffffffffffffffffffffffffffffff16ff5b600560009054906101000a900473ffffffffffffffffffffffffffffffffffffffff1673ffffffffffffffffffffffffffffffffffffffff163373ffffffffffffffffffffffffffffffffffffffff16141515610c0f57600080fd5b610c3960008083815260200190815260200160002060010154600854611acc90919063ffffffff16565b60088190555060006001600080600085815260200190815260200160002060000160009054906101000a900473ffffffffffffffffffffffffffffffffffffffff1673ffffffffffffffffffffffffffffffffffffffff1673ffffffffffffffffffffffffffffffffffffffff16815260200190815260200160002060006101000a81548160ff0219169083151502179055506001600760008282540392505081905550600080828152602001908152602001600020600080820160006101000a81549073ffffffffffffffffffffffffffffffffffffffff02191690556001820160009055600282016000610d2f9190611b20565b600382016000905560048201600090556005820160009055505050565b6000600c600854811515610d5c57fe5b04905090565b60026020528060005260406000206000915090505481565b60036020528060005260406000206000915090505481565b60085481565b60008060008060008060011515600160003373ffffffffffffffffffffffffffffffffffffffff1673ffffffffffffffffffffffffffffffffffffffff16815260200190815260200160002060009054906101000a900460ff161515141515610e0057600080fd5b600080600360003373ffffffffffffffffffffffffffffffffffffffff1673ffffffffffffffffffffffffffffffffffffffff168152602001908152602001600020548152602001908152602001600020945062278d0085600301544203111515610e6a57600080fd5b600093505b84600201805490508460ff16101561121d576000600460008760000160009054906101000a900473ffffffffffffffffffffffffffffffffffffffff1673ffffffffffffffffffffffffffffffffffffffff1673ffffffffffffffffffffffffffffffffffffffff1681526020019081526020016000206000876002018760ff16815481101515610efc57fe5b906000526020600020900160009054906101000a900473ffffffffffffffffffffffffffffffffffffffff1673ffffffffffffffffffffffffffffffffffffffff1673ffffffffffffffffffffffffffffffffffffffff168152602001908152602001600020541415610f6e57611210565b600460008660000160009054906101000a900473ffffffffffffffffffffffffffffffffffffffff1673ffffffffffffffffffffffffffffffffffffffff1673ffffffffffffffffffffffffffffffffffffffff1681526020019081526020016000206000866002018660ff16815481101515610fe757fe5b906000526020600020900160009054906101000a900473ffffffffffffffffffffffffffffffffffffffff1673ffffffffffffffffffffffffffffffffffffffff1673ffffffffffffffffffffffffffffffffffffffff1681526020019081526020016000205492506104b06110fa60026000886002018860ff1681548110151561106e57fe5b906000526020600020900160009054906101000a900473ffffffffffffffffffffffffffffffffffffffff1673ffffffffffffffffffffffffffffffffffffffff1673ffffffffffffffffffffffffffffffffffffffff168152602001908152602001600020546110ec868960010154611ae590919063ffffffff16565b611ae590919063ffffffff16565b81151561110357fe5b049150846002018460ff1681548110151561111a57fe5b906000526020600020900160009054906101000a900473ffffffffffffffffffffffffffffffffffffffff1690508073ffffffffffffffffffffffffffffffffffffffff1663a9059cbb33846000604051602001526040518363ffffffff167c0100000000000000000000000000000000000000000000000000000000028152600401808373ffffffffffffffffffffffffffffffffffffffff1673ffffffffffffffffffffffffffffffffffffffff16815260200182815260200192505050602060405180830381600087803b15156111f357600080fd5b6102c65a03f1151561120457600080fd5b50505060405180519050505b8380600101945050610e6f565b42856003018190555060019550505050505090565b6000600560009054906101000a900473ffffffffffffffffffffffffffffffffffffffff1673ffffffffffffffffffffffffffffffffffffffff163373ffffffffffffffffffffffffffffffffffffffff1614151561129057600080fd5b600160096000828254019250508190555083600080600954815260200190815260200160002060000160006101000a81548173ffffffffffffffffffffffffffffffffffffffff021916908373ffffffffffffffffffffffffffffffffffffffff16021790555081600080600954815260200190815260200160002060010181905550826000806009548152602001908152602001600020600201908051906020019061133e929190611b41565b50600080600060095481526020019081526020016000206003018190555060018060008673ffffffffffffffffffffffffffffffffffffffff1673ffffffffffffffffffffffffffffffffffffffff16815260200190815260200160002060006101000a81548160ff021916908315150217905550600954600360008673ffffffffffffffffffffffffffffffffffffffff1673ffffffffffffffffffffffffffffffffffffffff16815260200190815260200160002081905550600160076000828254019250508190555061141f82600854611aae90919063ffffffff16565b60088190555060095490509392505050565b600660009054906101000a900473ffffffffffffffffffffffffffffffffffffffff1681565b600560009054906101000a900473ffffffffffffffffffffffffffffffffffffffff1681565b6000600560009054906101000a900473ffffffffffffffffffffffffffffffffffffffff1673ffffffffffffffffffffffffffffffffffffffff163373ffffffffffffffffffffffffffffffffffffffff161415156114db57600080fd5b34600a81905550600a54905090565b6004602052816000526040600020602052806000526040600020600091509150505481565b60008061151a611bcb565b6000806000600560009054906101000a900473ffffffffffffffffffffffffffffffffffffffff1673ffffffffffffffffffffffffffffffffffffffff163373ffffffffffffffffffffffffffffffffffffffff1614151561157b57600080fd5b60008088815260200190815260200160002060000160009054906101000a900473ffffffffffffffffffffffffffffffffffffffff16600080898152602001908152602001600020600101546000808a81526020019081526020016000206002016000808b8152602001908152602001600020600301546000808c8152602001908152602001600020600401546000808d8152602001908152602001600020600501548380548060200260200160405190810160405280929190818152602001828054801561169f57602002820191906000526020600020905b8160009054906101000a900473ffffffffffffffffffffffffffffffffffffffff1673ffffffffffffffffffffffffffffffffffffffff1681526020019060010190808311611655575b5050505050935095509550955095509550955091939550919395565b600560009054906101000a900473ffffffffffffffffffffffffffffffffffffffff1673ffffffffffffffffffffffffffffffffffffffff163373ffffffffffffffffffffffffffffffffffffffff1614151561171757600080fd5b80600260008473ffffffffffffffffffffffffffffffffffffffff1673ffffffffffffffffffffffffffffffffffffffff168152602001908152602001600020819055505050565b6000803390508073ffffffffffffffffffffffffffffffffffffffff166370a08231306000604051602001526040518263ffffffff167c0100000000000000000000000000000000000000000000000000000000028152600401808273ffffffffffffffffffffffffffffffffffffffff1673ffffffffffffffffffffffffffffffffffffffff168152602001915050602060405180830381600087803b151561180857600080fd5b6102c65a03f1151561181957600080fd5b505050604051805190509150509392505050565b6000600560009054906101000a900473ffffffffffffffffffffffffffffffffffffffff1673ffffffffffffffffffffffffffffffffffffffff163373ffffffffffffffffffffffffffffffffffffffff1614151561188b57600080fd5b600754905090565b60016020528060005260406000206000915054906101000a900460ff1681565b60075481565b600080600060011515600160003373ffffffffffffffffffffffffffffffffffffffff1673ffffffffffffffffffffffffffffffffffffffff16815260200190815260200160002060009054906101000a900460ff16151514151561191d57600080fd5b600080600360003373ffffffffffffffffffffffffffffffffffffffff1673ffffffffffffffffffffffffffffffffffffffff168152602001908152602001600020548152602001908152602001600020915062ed4e008260030154420311151561198757600080fd5b600090505b84518160ff161015611a7e57838160ff168151811015156119a957fe5b90602001906020020151600460008460000160009054906101000a900473ffffffffffffffffffffffffffffffffffffffff1673ffffffffffffffffffffffffffffffffffffffff1673ffffffffffffffffffffffffffffffffffffffff1681526020019081526020016000206000878460ff16815181101515611a2957fe5b9060200190602002015173ffffffffffffffffffffffffffffffffffffffff1673ffffffffffffffffffffffffffffffffffffffff16815260200190815260200160002081905550808060010191505061198c565b42826004018190555060019250505092915050565b6000808284811515611aa157fe5b0490508091505092915050565b6000808284019050838110151515611ac257fe5b8091505092915050565b6000828211151515611ada57fe5b818303905092915050565b6000806000841415611afa5760009150611b19565b8284029050828482811515611b0b57fe5b04141515611b1557fe5b8091505b5092915050565b5080546000825590600052602060002090810190611b3e9190611bdf565b50565b828054828255906000526020600020908101928215611bba579160200282015b82811115611bb95782518260006101000a81548173ffffffffffffffffffffffffffffffffffffffff021916908373ffffffffffffffffffffffffffffffffffffffff16021790555091602001919060010190611b61565b5b509050611bc79190611c04565b5090565b602060405190810160405280600081525090565b611c0191905b80821115611bfd576000816000905550600101611be5565b5090565b90565b611c4491905b80821115611c4057600081816101000a81549073ffffffffffffffffffffffffffffffffffffffff021916905550600101611c0a565b5090565b905600a165627a7a723058206be69a20cf1cb36ad4bbccd077d81bdc62a3fff022ddb48290d45c8369bf0ac50029",
  "source": "pragma solidity ^0.4.10;\n\n// For the sake of simplicity lets assume EUR is a ERC20 token\n// Also lets assume we can 100% trust the exchange rate oracle\n\nimport \"./ERC223.sol\";\nimport \"./SafeMath.sol\";\n\n\ncontract PayrollInterface {\n\n    // this module does a good job in math work;\n    using SafeMath for uint256;\n\n    // employee's info\n    struct employinfo {\n        address emp_address; // each employee has an address\n        uint256 emp_salary;\n        address[] emp_allowtoken;\n        uint time_pay;\n        uint time_allocation;\n        uint256 token_allocation;\n    }\n\n    // public variables\n    mapping (uint256 => employinfo) public emp_book; // ID points to employess's info\n    mapping (address => bool) public emp_check; // Authorization for the functions for employees only\n    mapping (address => uint256) public exchangeboard; // for oracle\n    mapping (address => uint256) public Get_Id; // for msg.sender to theri IDs\n\n    // for the payday and allocation function\n    mapping (address => mapping(address => uint256)) public emp_addr_allocation;\n\n\n    address public owner;\n    address public oracle;\n    uint256 public emp_count = 0;  // counter for total people\n    uint256 public total_pay = 0; // counter for yearly total spent on salary from company\n\n\n    // private valraibles\n    uint256 private emp_id = 1000; // Eployee's ID goes from 1000\n    uint256 private balance; // Balance for ethereum\n\n\n\n\n    modifier employee_only {\n        require(emp_check[msg.sender] == true);\n        _;\n    }\n\n\n\n    // constructor\n    function PayrollInterface(address addr_oracle){\n        owner = msg.sender;\n        oracle = addr_oracle;\n    }\n\n\n\n    /* OWNER ONLY */\n    function addEmployee(address accountAddress, address[] allowedTokens, uint256 initialYearlyEURSalary)returns(uint256){\n        require(msg.sender == owner);\n        emp_id += 1; // generate a new ID\n\n        // initialization for the infos\n        emp_book[emp_id].emp_address = accountAddress;\n        emp_book[emp_id].emp_salary = initialYearlyEURSalary;\n        emp_book[emp_id].emp_allowtoken = allowedTokens;\n        emp_book[emp_id].time_pay = 0;\n\n        emp_check[accountAddress] = true; // I made a mapping for use in EMPLOYEE ONLY functions since\n\n        // their address points to their IDs\n        Get_Id[accountAddress] = emp_id;\n        // uodates the total headcount\n        emp_count += 1;\n        // updates the total spent\n        total_pay = total_pay.add(initialYearlyEURSalary);\n\n        return emp_id; // since the ID is not given, I will just generate one, starting from 1001 till whatever.\n    }\n\n\n    function setEmployeeSalary(uint256 employeeId, uint256 yearlyEURSalary){\n        require(msg.sender == owner);\n\n        // firtst substract the old salary\n        total_pay = total_pay.sub(emp_book[employeeId].emp_salary);\n        // updates the salary\n        emp_book[employeeId].emp_salary = yearlyEURSalary;\n        // Add the new salary\n        total_pay = total_pay.add(yearlyEURSalary);\n\n    }\n\n\n    function removeEmployee(uint256 employeeId){\n        require(msg.sender == owner);\n        // substract the salary from the total count\n        total_pay = total_pay.sub(emp_book[employeeId].emp_salary);\n        // take down the access to call the functions\n        emp_check[emp_book[employeeId].emp_address] = false;\n        // substract the total number\n        emp_count -= 1;\n        // remove the pointer\n        delete(emp_book[employeeId]);\n    }\n\n\n    function addFunds() payable returns(uint256){\n        require(msg.sender == owner);\n        // add ether\n        balance = msg.value;\n\n        return balance;\n    }\n\n    function scapeHatch(){\n        require(msg.sender == owner);\n        // take all the ether to owner\n        selfdestruct(msg.sender);\n\n    }\n\n\n    function tokenFallback(address _from, uint _value, bytes _data) public returns(uint) {\n\n        // this is like the payable function for msg.value in ERC223\n        ERC223 token = ERC223(msg.sender);\n        return token.balanceOf(this);\n\n    } // Use approveAndCall or ERC223 tokenFallback\n\n\n    function getEmployeeCount() constant returns (uint256){\n        require(msg.sender == owner);\n        return emp_count;\n    }\n\n\n\n    function getEmployee(uint256 employeeId) constant returns (address, uint256, address[], uint, uint, uint256){\n        require(msg.sender == owner);\n        // returns all the information for emplyee\n        return (emp_book[employeeId].emp_address,\n                emp_book[employeeId].emp_salary,\n                emp_book[employeeId].emp_allowtoken,\n                emp_book[employeeId].time_pay,\n                emp_book[employeeId].time_allocation,\n                emp_book[employeeId].token_allocation\n                );\n    }\n\n\n    function calculatePayrollBurnrate() constant returns (uint256){\n        return total_pay / 12;\n    } // Monthly EUR amount spent in salaries\n\n\n\n    function calculatePayrollRunway(address[] allthetokens) constant returns (uint256){\n        uint256 total = 0;\n\n        // get all the tokens, convert them into EUR, all them to the total and devided by spent per day\n\n        for (uint8 i = 0; i < allthetokens.length; i++) {\n            ERC223 token = ERC223(allthetokens[i]);\n            uint256 fund = token.balanceOf(allthetokens[i]);\n            uint256 money = fund.div(exchangeboard[allthetokens[i]]);\n            total = total.add(money);\n        }\n\n        return total/ (total_pay/365);\n\n    } // Days until the contract can run out of funds\n\n\n\n    /* EMPLOYEE ONLY */\n\n    function determineAllocation(address[] tokens, uint256[] distribution) employee_only returns(bool){\n\n        // get the employee's information\n        var employee = emp_book[Get_Id[msg.sender]];\n        require(now - employee.time_pay > 15552000 ); // 180 days in seconds;\n\n        // use mapping inside of mapping for the allocation;\n        for (uint8 i = 0; i < tokens.length; i++){\n            emp_addr_allocation[employee.emp_address][tokens[i]] = distribution[i];\n        }\n\n        // updates the time for the next round\n        employee.time_allocation = now;\n\n        return true;\n    }// only callable once every 6 months\n\n\n\n    function payday() employee_only returns(bool){\n\n        // get the employee's information\n        var employee = emp_book[Get_Id[msg.sender]];\n\n        require(now - employee.time_pay > 2592000 ); // 30 days in seconds;\n\n        for (uint8 i = 0; i < employee.emp_allowtoken.length; i++) {\n\n            // if the allocation is 0, go skip and go check the next one\n            if (emp_addr_allocation[employee.emp_address][employee.emp_allowtoken[i]] == 0)  //  map=> map\n\n                continue;\n                // get the rate, so I don't need to use the long code\n                uint256 allocate_rate = emp_addr_allocation[employee.emp_address][employee.emp_allowtoken[i]];\n\n                // the math, devided by 1200 so it is monthly rate, and take the decimals\n                uint256 tokenAmount = employee.emp_salary.mul(allocate_rate).mul(exchangeboard[employee.emp_allowtoken[i]]) / 1200;\n\n                // call the token address\n                ERC223 token = ERC223(employee.emp_allowtoken[i]);\n\n                // do the payment\n                token.transfer(msg.sender, tokenAmount);\n\n            }\n\n        employee.time_pay = now;\n\n\n        return true;\n    } // only callable once a month\n\n\n    /* ORACLE ONLY */\n\n    function setExchangeRate(address token, uint256 EURExchangeRate) {\n        require(msg.sender == owner); // don't forget change it to oracle\n        exchangeboard[token] = EURExchangeRate;\n\n    } // uses decimals from token\n}\n",
  "sourcePath": "/Users/haozhouwang/Desktop/Status_github/contracts/PayrollInterface.sol",
  "compiler": {
    "name": "solc",
    "version": "0.4.18+commit.9cf6e910.Emscripten.clang"
  },
  "schemaVersion": "1.0.1",
  "updatedAt": "2017-12-20T22:24:21.315Z"
}